:020000040800F2
:1000000000000120690A0008B90A0008B90A0008BE
:10001000B90A0008B90A0008B90A0008000000007F
:10002000000000000000000000000000B90A000805
:10003000B90A000800000000B90A00087D0800089D
:1000400000000000B90A0008B90A0008B90A00084F
:10005000B90A0008B90A0008A1020008BD02000898
:10006000B90A0008B90A0008B90A0008B90A000864
:10007000B90A0008B90A0008B90A0008B90A000854
:10008000B90A0008B90A0008B90A0008000000000F
:10009000000000000000000000000000B90A000895
:1000A000B90A0008B90A0008B90A0008B90A000824
:1000B000B90A0008B90A0008B90A0008B90A000814
:1000C000B90A0008B90A0008B90A0008B90A000804
:1000D000B90A0008B90A0008B90A000800000000BF
:1000E000B90A0008B90A0008B90A000800000000AF
:1000F000000000000000000000000000B90A000835
:1001000000000000B90A0008B90A0008B90A00088E
:1001100000000000000000000000000000000000DF
:10012000B90A0008B90A0008B90A0008B90A0008A3
:10013000B90A0008000000000000000000000000F4
:10014000000000000000000000000000B90A0008E4
:10015000B90A0008B90A0008B90A0008B90A000873
:10016000B90A0008B90A00080000000000000000F9
:10017000000000000000000000000000000000007F
:10018000000000000000000000000000000000006F
:04019000B90A0008A0
:1001940010B5054C237833B9044B13B10448AFF3BD
:1001A40000800123237010BD000000200000000027
:1001B400040B000808B5034B1BB103490348AFF314
:1001C400008008BD0000000004000020040B0008AB
:1001D40000F0B2B8A0F13003DBB2092B06D9A0F1CC
:1001E4004103052B9ABF3738C3B200231846704722
:1001F4002DE9F84301464078FFF7ECFF064688787E
:10020400FFF7E8FF0446C878FFF7E4FF07460879DC
:10021400FFF7E0FF05464879FFF7DCFF02468879DF
:10022400FFF7D8FF130143EA073242EA000343EA27
:10023400052242F00065184F44EA0612C2F3460252
:1002440001F109040026F3B29A4204F1040405D82A
:1002540028461149BDE8F84300F07EB814F8040CB0
:10026400FFF7B8FF814614F8030CFFF7B3FF01460C
:1002740014F8020CFFF7AEFF804614F8010CFFF7E8
:10028400A9FF0B0243EA0931014341EA081027F8A8
:10029400020B0136D7E700BF1C00002008B5044B51
:1002A4001B689847034A536943F00103536108BD2F
:1002B400E4000020003C014008B5044B5B6898470B
:1002C400034A536943F00203536108BDE40000206C
:1002D400003C01400F2000F0C5BA0000144B1A691D
:1002E400002ABFBF134A5A6002F188325A60DA68A2
:1002F400D103FCD41A6942F002021A611A6922F08D
:1003040078021A611A6942EAC00018611A6942F453
:1003140080321A61064BDA68D203FCD4DA6842F000
:100324000102DA601A6922F002021A61704700BF02
:10033400003C02402301674508B50120FFF7CEFFCA
:100344000320FFF7CBFF0520FFF7C8FFBDE80840F7
:100354000720FFF7C3BF0000174B30B51C69002C02
:10036400BFBF164C5C6004F188345C60DC68E50354
:10037400FCD41C6944F001041C611C6924F440741D
:100384001C611C6944F480741C610B4B01EB420238
:10039400401A914204D11A6922F001021A6130BD57
:1003A400441831F8025B2580DC68E403FCD4DC6883
:1003B40044F00104DC60ECE7003C024023016745A3
:1003C40070B5052810D8DFE800F003101B26313E75
:1003D400244B4E0018680321B14020EA0101196042
:1003E4001968B2400A431A6070BD1F4B4D0018686B
:1003F4000321A94020EA010119601968AA40F1E724
:100404001A4B4C0018680321A14020EA010119602D
:100414001968A240E6E7164B48001C680321814096
:1004240024EA0101196019688240DBE711484B0096
:1004340004680321994024EA0101016001689A409B
:100444000A430260D0E70C484B000468032199403A
:1004540024EA01010160046802FA03F12143016006
:10046400C2E700BF0000024000040240000802404E
:10047400000C024000100240001C024030B5052868
:1004840010D8DFE800F003101217191B0C4B586842
:100494004D000124AC4020EA0400586058688A40AA
:1004A40002435A6030BD074BF1E7074B58680124FB
:1004B4008C40F0E7054BF9E7054BF7E7054BF5E70B
:1004C400000002400004024000080240000C024008
:1004D40000100240001C024070B5052810D8DFE867
:1004E40000F003101B26313E244B4E009868032174
:1004F400B14020EA010199609968B2400A439A60C8
:1005040070BD1F4B4D0098680321A94020EA0101EA
:1005140099609968AA40F1E71A4B4C009868032146
:10052400A14020EA010199609968A240E6E7164BD0
:1005340048009C680321814024EA0101996099687C
:100544008240DBE711484B0084680321994024EA88
:100554000101816081689A400A438260D0E70C48B7
:100564004B0084680321994024EA01018160846876
:1005740002FA03F121438160C2E700BF0000024098
:100584000004024000080240000C02400010024037
:10059400001C024070B5052810D8DFE800F00310F5
:1005A4001B26313E244B4E00D8680321B14020EA7B
:1005B4000101D960D968B2400A43DA6070BD1F4BAB
:1005C4004D00D8680321A94020EA0101D960D96807
:1005D400AA40F1E71A4B4C00D8680321A14020EA55
:1005E4000101D960D968A240E6E7164B4800DC68EF
:1005F4000321814024EA0101D960D9688240DBE704
:1006040011484B00C4680321994024EA0101C160E8
:10061400C1689A400A43C260D0E70C484B00C468E2
:100624000321994024EA0101C160C46802FA03F17C
:100634002143C160C2E700BF000002400004024041
:1006440000080240000C024000100240001C02405E
:1006540010B505280CD8DFE800F00317171F27345E
:10066400012A06D11E4B986902FA01F101439961EE
:1006740010BD002AFCD11A4884691031012303FA01
:1006840001F121438161F3E7012A01D1154BEAE726
:10069400002AEDD11348EFE7012A01D1124BE2E71A
:1006A400002AE5D11048E7E7012A01D10F4BDAE728
:1006B400002ADDD10D4B01F110020121986991400E
:1006C400D4E7012A01D10A4BCDE7002AD0D1084A48
:1006D40010319069012303FA01F101439161C7E7E5
:1006E4000000024000040240000C024000100240DE
:1006F400001C024010B505280FD8DFE800F0030FF6
:10070400111315170A4BD86901248C4020EA040000
:10071400D861D8698A400243DA6110BD054BF2E71B
:10072400054BF0E7054BEEE7054BECE7054BEAE735
:10073400000002400004024000080240000C024095
:1007440000100240001C024005283BD8DFE800F0FE
:100754000311181F262D0F2088401B4BC0438A40CD
:10076400072929D8196A08401862196A0A431A62C3
:1007740070470F208840154BC0438A400729F0E793
:100784000F208840124BC0438A400729E9E70F2015
:100794008840104BC0438A400729E2E70F20884075
:1007A4000D4BC0438A400729DBE70F2088400B4BE1
:1007B400C0438A400729D4E7596A08405862596AF5
:1007C4000A435A62704700BF00000240000402401E
:1007D40000080240000C024000100240001C0240CD
:1007E40010B50446002000F029F8012000F026F896
:1007F400A27861782078FFF7E3FD22796178207888
:10080400FFF73CFE627961782078FFF765FEA279F4
:1008140061782078FFF7BEFEE27861782078FFF7F0
:1008240017FFE27961782078FFF764FF227A617814
:100834002078BDE81040FFF787BF0000034A01237A
:10084400116B03FA00F0084310637047003802404C
:10085400034A0123516C03FA00F0084350647047C3
:1008640000380240034A0123116D03FA00F00843E3
:100874001065704700380240064B1B782BB94FF0C7
:10088400E022136923F001031361034B1B6803B1D6
:100894001847704724010020280100204FF0E0236E
:1008A4001A6922F004021A611A6942F002021A61FA
:1008B40070474FF0E02300229A611A6922F0010286
:1008C4001A617047064B00221A70064B19604FF0EC
:1008D400E0239A6158611A6942F001021A61704773
:1008E400240100202801002008B50420FFF7B0FFF0
:1008F400114BDA6822F40052DA60DA6822F480528A
:10090400DA60DA6822F48062DA60DA6842F00802B7
:10091400DA60DA6842F00402DA601A6922F44052BA
:100924001A611A691A6141F217129A60DA6842F47C
:100934000052DA6008BD00BF00100140054A11688A
:10094400C1F34013890643BF53680370012018465E
:10095400704700BF0010014010B506490023DAB209
:10096400825C02B910BD0C682406FCD54A600133D0
:10097400F5E700BF00100140054B01221A704FF04B
:10098400E023044AC3F8082D034A044B13601847B4
:1009940065010020004000082C01002004400008EC
:1009A40070B586B0FFF796FCFFF778FF2449254819
:1009B400254CFFF787FF00230922CDE90033CDE959
:1009C40003338DF801200A23072268468DF8082096
:1009D4008DF80D308DF81420FFF702FF03A8FFF700
:1009E400FFFEFFF781FF194E337813B1002006B0E4
:1009F40070BD174D28782044FFF7A0FF154B012840
:100A04001870F1D1144B1A7812B91870FFF7E0FB83
:100A1400FFF74FFF2B78E25C0A2A0FD12046FFF73D
:100A2400E7FB0E48FFF798FF00232B70237A312B46
:100A3400DAD103490A48FFF745FFD4E70133F4E765
:100A44007D09000880C3C90133010020650100202D
:100A54003101002032010020300100201C0B00086D
:100A640040420F000D488546AFF300800C480D4905
:100A74000D4A002302E0D458C4500433C4188C42F5
:100A8400F9D30A4A0A4C002301E013600432A2425B
:100A9400FBD300F011F8FFF783FFFEE7000001200D
:100AA4000000002000000020280B000800000020A7
:100AB40068010020FEE7000070B50D4D0D4C641B6D
:100AC400A4100026A64209D10B4D0C4C00F018F8D6
:100AD400641BA4100026A64205D170BD55F8043B42
:100AE40098470136EEE755F8043B98470136F2E79C
:100AF400200B0008200B0008200B0008240B000822
:100B0400F8B500BFF8BC08BC9E467047F8B500BFF6
:080B1400F8BC08BC9E467047C6
:040B1C006F6B0000FB
:040B2000B90100080F
:040B2400950100082F
:0400000508000A697C
:00000001FF
